:020000040800F2
:1000000000000520A51A0008C1190008C31900083E
:10001000C5190008C7190008C91900080000000028
:100020000000000000000000000000001185000832
:10003000CB19000800000000B185000815860008F3
:10004000F51A0008F51A0008F51A0008F51A000854
:10005000F51A0008F51A0008F51A0008F51A000844
:10006000F51A0008F51A0008F51A0008F51A000834
:10007000F51A0008F51A0008F51A0008F51A000824
:10008000F51A0008F51A0008F51A0008F51A000814
:10009000F51A0008F51A0008F51A0008F51A000804
:1000A000F51A0008F51A0008F51A0008F51A0008F4
:1000B000F51A0008F51A0008F51A0008F51A0008E4
:1000C000F51A0008F51A0008F51A0008F51A0008D4
:1000D000F51A0008F51A0008F51A0008F51A0008C4
:1000E000F51A0008F51A0008F51A0008F51A0008B4
:1000F000F51A0008F51A0008F51A0008F51A0008A4
:10010000F51A0008F51A0008F51A0008F51A000893
:10011000F51A0008F51A0008CD190008F51A0008AC
:10012000F51A0008F51A0008F51A0008F51A000873
:10013000F51A0008F51A0008F51A0008F51A000863
:10014000F51A0008F51A0008F51A0008F51A000853
:10015000F51A0008F51A0008F51A0008F51A000843
:10016000F51A0008F51A0008F51A0008F51A000833
:10017000F51A0008F51A0008F51A0008000000003A
:10018000F51A0008F51A0008F51A0008F51A000813
:10019000F51A0008F51A0008F51A0008F51A000803
:1001A000D9190008F51A0008E5190008F51A000821
:1001B000F51A0008F51A0008F51A0008F51A0008E3
:0801C000F51A0008F51A000809
:1001D00010B5054C237833B9044B13B10448AFF381
:1001E00000800123237010BD4003002000000000A8
:1001F0008C26030808B5034B1BB103490348AFF332
:10020000008008BD00000000440300208C26030885
:1002100001F0FF01102A2BDB10F0070F08D010F8B7
:10022000013B013A8B422DD010F0070F42B3F6D1BB
:10023000F0B441EA012141EA014122F007047FF0D4
:1002400000070023F0E80256083C85EA010586EA2B
:10025000010685FA47F5A3FA87F586FA47F6A5FA67
:1002600087F68EB9EED1F0BC01F0FF0102F0070273
:1002700032B110F8013B013A83EA010313B1F8D11E
:100280000020704701387047002D06BF35460338FF
:10029000073815F0010F07D1013015F4807F02BF38
:1002A000013015F4C03F0130F0BC0138704700BF89
:1002B00081F0004102E000BF83F0004330B54FEA17
:1002C00041044FEA430594EA050F08BF90EA020F84
:1002D0001FBF54EA000C55EA020C7FEA645C7FEA17
:1002E000655C00F0E2804FEA5454D4EB5555B8BF3A
:1002F0006D420CDD2C4480EA020281EA030382EAAB
:10030000000083EA010180EA020281EA0303362D3C
:1003100088BF30BD11F0004F4FEA01314FF4801C0F
:100320004CEA113102D0404261EB410113F0004F21
:100330004FEA03334CEA133302D0524263EB4303D8
:1003400094EA050F00F0A780A4F10104D5F1200E76
:100350000DDB02FA0EFC22FA05F2801841F10001D1
:1003600003FA0EF2801843FA05F359410EE0A5F1A5
:1003700020050EF1200E012A03FA0EFC28BF4CF0D6
:10038000020C43FA05F3C01851EBE37101F000458C
:1003900007D54FF0000EDCF1000C7EEB00006EEB99
:1003A0000101B1F5801F1BD3B1F5001F0CD3490823
:1003B0005FEA30004FEA3C0C04F101044FEA44527A
:1003C00012F5800F80F09A80BCF1004F08BF5FEA01
:1003D000500C50F1000041EB045141EA050130BDE1
:1003E0005FEA4C0C404141EB0101013C28BFB1F5F3
:1003F000801FE9D291F0000F04BF01460020B1FA3E
:1004000081F308BF2033A3F10B03B3F120020CDA10
:100410000C3208DD02F1140CC2F10C0201FA0CF0EE
:1004200021FA02F10CE002F11402D8BFC2F1200C53
:1004300001FA02F120FA0CFCDCBF41EA0C01904009
:10044000E41AA2BF01EB0451294330BD6FEA040452
:100450001F3C1CDA0C340EDC04F11404C4F120023D
:1004600020FA04F001FA02F340EA030021FA04F34F
:1004700045EA030130BDC4F10C04C4F1200220FAA6
:1004800002F001FA04F340EA0300294630BD21FAE4
:1004900004F0294630BD94F0000F83F4801306BFAA
:1004A00081F480110134013D4EE77FEA645C18BF9E
:1004B0007FEA655C29D094EA050F08BF90EA020F35
:1004C00005D054EA000C04BF1946104630BD91EA2D
:1004D000030F1EBF0021002030BD5FEA545C05D130
:1004E0004000494128BF41F0004130BD14F580046F
:1004F0003CBF01F5801130BD01F0004545F0FE41E3
:1005000041F470014FF0000030BD7FEA645C1ABF17
:10051000194610467FEA655C1CBF0B46024650EA4E
:10052000013406BF52EA033591EA030F41F400217A
:1005300030BD00BF90F0000F04BF0021704730B500
:100540004FF4806404F132044FF000054FF00001D5
:1005500050E700BF90F0000F04BF0021704730B596
:100560004FF4806404F1320410F0004548BF40426B
:100570004FF000013EE700BF42004FEAE2014FEAC0
:1005800031014FEA02701FBF12F07F4393F07F4F9B
:1005900081F06051704732F07F4208BF704793F09E
:1005A0007F4F04BF41F40021704730B54FF46074B1
:1005B00001F0004521F000411CE700BF50EA0102B4
:1005C00008BF704730B54FF000050AE050EA01025D
:1005D00008BF704730B511F0004502D5404261EBCD
:1005E00041014FF4806404F132045FEA915C3FF40E
:1005F000D8AE4FF003025FEADC0C18BF03325FEAAB
:10060000DC0C18BF033202EBDC02C2F1200300FA5B
:1006100003FC20FA02F001FA03FE40EA0E0021FA80
:1006200002F11444BDE600BF70B54FF0FF0C4CF46E
:10063000E06C1CEA11541DBF1CEA135594EA0C0F20
:1006400095EA0C0F00F0DEF82C4481EA030621EA5B
:100650004C5123EA4C5350EA013518BF52EA033596
:1006600041F4801143F4801338D0A0FB02CE4FF048
:100670000005E1FB02E506F00042E0FB03E54FF078
:100680000006E1FB03569CF0000F18BF4EF0010E70
:10069000A4F1FF04B6F5007F64F5407404D25FEA6C
:1006A0004E0E6D4146EB060642EAC62141EA55511F
:1006B0004FEAC52040EA5E504FEACE2EB4F1FD0C61
:1006C00088BFBCF5E06F1ED8BEF1004F08BF5FEADF
:1006D000500E50F1000041EB045170BD06F0004691
:1006E00046EA010140EA020081EA0301B4EB5C043E
:1006F000C2BFD4EB0C0541EA045170BD41F4801136
:100700004FF0000E013C00F3AB8014F1360FDEBF5A
:10071000002001F0004170BDC4F10004203C35DA36
:100720000C341BDC04F11404C4F1200500FA05F3B9
:1007300020FA04F001FA05F240EA020001F000425A
:1007400021F0004110EBD37021FA04F642EB0601D0
:100750005EEA430E08BF20EAD37070BDC4F10C04FA
:10076000C4F1200500FA04F320FA05F001FA04F2BE
:1007700040EA020001F0004110EBD37041F10001AA
:100780005EEA430E08BF20EAD37070BDC4F12005B5
:1007900000FA05F24EEA020E20FA04F301FA05F21D
:1007A00043EA020321FA04F001F0004121FA04F2C5
:1007B00020EA020000EBD3705EEA430E08BF20EA95
:1007C000D37070BD94F0000F0FD101F000464000CF
:1007D00041EB010111F4801F08BF013CF7D041EA51
:1007E000060195F0000F18BF704703F00046520055
:1007F00043EB030313F4801F08BF013DF7D043EA26
:100800000603704794EA0C0F0CEA135518BF95EADB
:100810000C0F0CD050EA410618BF52EA4306D1D162
:1008200081EA030101F000414FF0000070BD50EA81
:10083000410606BF1046194652EA430619D094EA0B
:100840000C0F02D150EA013613D195EA0C0F05D1F5
:1008500052EA03361CBF104619460AD181EA030149
:1008600001F0004141F0FE4141F470014FF0000001
:1008700070BD41F0FE4141F4780170BD70B54FF09C
:10088000FF0C4CF4E06C1CEA11541DBF1CEA13551C
:1008900094EA0C0F95EA0C0F00F0A7F8A4EB0504FE
:1008A00081EA030E52EA03354FEA013100F08880F5
:1008B0004FEA03334FF0805545EA131343EA1263BE
:1008C0004FEA022245EA111545EA10654FEA002673
:1008D0000EF000419D4208BF964244F1FD0404F52C
:1008E000407402D25B084FEA3202B61A65EB030588
:1008F0005B084FEA32024FF480104FF4002CB6EB45
:10090000020E75EB030E22BFB61A754640EA0C00C4
:100910005B084FEA3202B6EB020E75EB030E22BF04
:10092000B61A754640EA5C005B084FEA3202B6EB45
:10093000020E75EB030E22BFB61A754640EA9C0004
:100940005B084FEA3202B6EB020E75EB030E22BFD4
:10095000B61A754640EADC0055EA060E18D04FEA92
:10096000051545EA16754FEA06164FEAC30343EA32
:1009700052734FEAC2025FEA1C1CC0D111F4801FFF
:100980000BD141EA00014FF000004FF0004CB6E7F8
:1009900011F4801F04BF01430020B4F1FD0C88BF97
:1009A000BCF5E06F3FF6AFAEB5EB030C04BFB6EBA2
:1009B000020C5FEA500C50F1000041EB045170BD95
:1009C0000EF0004E4EEA113114EB5C04C2BFD4EBC2
:1009D0000C0541EA045170BD41F480114FF0000E46
:1009E000013C90E645EA060E8DE60CEA135594EAC2
:1009F0000C0F08BF95EA0C0F3FF43BAF94EA0C0FC5
:100A00000AD150EA01347FF434AF95EA0C0F7FF439
:100A100025AF104619462CE795EA0C0F06D152EA8D
:100A200003353FF4FDAE1046194622E750EA410671
:100A300018BF52EA43067FF4C5AE50EA41047FF482
:100A40000DAF52EA43057FF4EBAE12E74FEA4102E5
:100A5000B2F1E04324BFB3F5001CDCF1FE5C0DD91C
:100A600001F0004C4FEAC0024CEA5070B2F1004F66
:100A700040EB830008BF20F00100704711F0804F69
:100A800021D113F13872BCBF01F00040704741F42E
:100A900080114FEA5252C2F11802C2F1200C10FA32
:100AA0000CF320FA02F018BF40F001004FEAC12316
:100AB0004FEAD32303FA0CFC40EA0C0023FA02F3BA
:100AC0004FEA4303CCE77FEA625307D150EA013390
:100AD0001EBF4FF0FE4040F44000704701F0004060
:100AE00040F0FE4040F40000704700BF7BB972B98F
:100AF0000029BEBF00204FF0004106E008BF0028DB
:100B00001CBF6FF000414FF0FF3000F0B5B9ADF100
:100B1000080C6DE904CE002909DB002B1ADB00F07C
:100B20004DF8DDF804E0DDE9022304B070474042EF
:100B300061EB4101002B1BDB00F040F8DDF804E025
:100B4000DDE9022304B0404261EB4101524263EB14
:100B500043037047524263EB430300F02FF8DDF884
:100B600004E0DDE9022304B0404261EB410170473B
:100B7000524263EB430300F021F8DDF804E0DDE9C5
:100B8000022304B0524263EB4303704753B94AB99E
:100B9000002908BF00281CBF4FF0FF314FF0FF3085
:100BA00000F06AB9ADF1080C6DE904CE00F006F86A
:100BB000DDF804E0DDE9022304B070472DE9F047D9
:100BC000089D0C46002B4ED194468C458646B2FAC1
:100BD00082F262D94AB1C2F12003914020FA03F3B4
:100BE0000CFA02FC194300FA02FE4FEA1C471FFAF6
:100BF0008CF6B1FBF7F44FEA1E4307FB141143EAEE
:100C0000014304FB06F199420AD91CEB030304F1EA
:100C1000FF3080F01281994240F20F81023C634420
:100C2000591A1FFA8EF3B1FBF7F007FB101143EAD4
:100C3000014300FB06F69E420AD91CEB030300F1B8
:100C4000FF3180F0FC809E4240F2F980634402381C
:100C50009B1B40EA044000211DB1D3400022C5E99E
:100C60000032BDE8F0878B4205D90DB1C5E900011E
:100C700000210846F5E7B3FA83F1002946D1A342E3
:100C800002D39042C0F0F080861A64EB0303012087
:100C9000002DE6D0C5E90063E3E7002A40F090802C
:100CA000A1EB0C044FEA1C481FFA8CF70121B4FB9E
:100CB000F8F64FEA1E4308FB164443EA044307FBD9
:100CC00006F0984208D91CEB030306F1FF3402D268
:100CD000984200F2CD8026461C1A1FFA8EF3B4FB10
:100CE000F8F008FB104443EA044300FB07F79F4277
:100CF00008D91CEB030300F1FF3402D29F4200F23B
:100D0000B0802046DB1B40EA0640A5E7C1F1200683
:100D10008B4022FA06F71F4320FA06FC04FA01F37F
:100D200043EA0C03F44000FA01F8380C4FEA134987
:100D3000B4FBF0FE1FFA87FC00FB1E4449EA0444A2
:100D40000EFB0CF9A14502FA01F20AD93C190EF189
:100D5000FF3A80F08480A14540F28180AEF1020E1E
:100D60003C44A4EB09041FFA83F9B4FBF0F300FB45
:100D7000134449EA044403FB0CFCA44507D93C197D
:100D800003F1FF3067D2A44565D9023B3C4443EAF6
:100D90000E40A0FB0293A4EB0C049C42CE469C4662
:100DA00051D34ED055B1B8EB0E0364EB0C0404FAEA
:100DB00006F6CB401E43CC40C5E90064002150E755
:100DC000C2F1200320FA03F10CFA02FC24FA03F327
:100DD00094400C434FEA1C4800FA02FE1FFA8CF7BD
:100DE000B3FBF8F008FB1031230C43EA014300FB8E
:100DF00007F1994208D91CEB030300F1FF362CD20E
:100E000099422AD9023863445B1AA4B2B3FBF8F1C1
:100E100008FB113344EA034401FB07F3A34208D95A
:100E20001CEB040401F1FF3613D2A34211D902399D
:100E30006444E41A41EA004139E70446F0E6084612
:100E400006E7C845AED2B9EB020E63EB070C0138DA
:100E5000A8E73146EDE7034699E73046D4E7D646A2
:100E60007FE7634402384DE70646234608460FE70E
:100E7000023E634430E700BF704700BF01490020D5
:100E800008F044BDA91F000808B5642006F050FF13
:100E9000FBE7000010B594B01022002102240AA83C
:100EA00030F0B6FC1422002103A830F0B1FC1D4B39
:100EB000192108A81A6C42F080521A641B6C03F0C6
:100EC00080530193019B184B1A6842F440421A6008
:100ED00001221B6803F440430293029B4FF48033CA
:100EE000CDE908234FF48003CDE90E434FF4D873C6
:100EF000CDE91244CDE9101305F0EAFE05F048FCF7
:100F00000F2300200721CDE903344FF4A053CDE98E
:100F100005034FF4805303A8079306F0C1F814B0FB
:100F200010BD00BF003802400070004030B54FF4E3
:100F300080738FB04FF080720E4D06939F230992FD
:100F40000122009300230446694628460593CDE913
:100F50000A2341F28832CDE90733CDE90C3305F09D
:100F600083FD41F288322146284605F04DFE0FB040
:100F700030BD00BFAC03002000B54FF4807391B0CA
:100F80004FF04072EF2808934FF0EB0302A90D4891
:100F900002934FF4406309934FF4005305934FF0CD
:100FA0000003CDE90A3214BF0A2206220F930792EA
:100FB0006A46CDE90D33CDE9003305F09AFD11B055
:100FC0005DF804FBAC0300202DE980489BB01022A3
:100FD000002101250DA84FF0104930F019FC002424
:100FE00004F01CFBC74B0DA8ADF834501094CDE9AC
:100FF0000E9304F031FB17230DA88DF835508DF8B2
:101000003C308DF8425004F027FB042004F014FB20
:10101000BFF34F8FBFF36F8FBB4AC2F85042BFF38D
:101020004F8FBFF36F8F536943F400335361BFF3A6
:101030004F8FBFF36F8FC2F88440BFF34F8FD2F84A
:10104000803043F6E074C3F3C900C3F34E335B0151
:1010500003EA0406014646EA81750139C2F8605286
:10106000F9D2203B13F1200FF2D1BFF34F8F536918
:1010700043F480335361BFF34F8FBFF36F8F04F09E
:1010800033FA0024FFF706FF142200210DA830F0E8
:10109000BFFB9E4B10219E481A6B01274FF0100892
:1010A0004FF0030B42F010024FF4805A994D4FF06D
:1010B00004091A631A6B984E02F010020292029A07
:1010C0001A6B42F002021A631A6B02F002020392D8
:1010D000039A1A6B42F001021A631A6B02F00102C2
:1010E0000492049A1A6B42F040021A631A6B02F0DF
:1010F00040020592059A1A6B42F400721A631A6B49
:1011000002F400720692069A1A6B42F008021A6301
:101110001A6B02F008020792079A1A6B42F4806277
:101120001A631A6B02F480620892089A1A6B42F0F2
:1011300020021A631A6B02F020020992099A1A6BB4
:1011400042F480721A631A6B02F480720A920A9A4D
:101150001A6B42F080021A631A6B02F080020B9243
:101160000B9A1A6B42F004021A6300221B6B03F005
:1011700004030C930C9B04F0BDFD01220821674879
:1011800004F0B8FD01224FF48051654804F0B2FD2F
:101190000022C021634804F0ADFD002240216248D6
:1011A00004F0A8FD0DA95A48CDE90D87CDE90F4BF4
:1011B00004F01CFC08230DA95848CDE90D37CDE9F2
:1011C0000F4404F013FC0DA95548CDE90DA7CDE956
:1011D0000F4404F00BFCC0220DA95248CDE90D27A5
:1011E000CDE90F4B04F002FC40220DA94E48CDE999
:1011F0000D27CDE90F4B04F0F9FB4C484C49848096
:1012000001600762C0E9054404F052FA49492846E2
:10121000C5E90014C5E90244C5E90A44C5E90C441E
:1012200004F0E5FA39462846434D04F099FB402383
:101230004FF4C07241493046B460F461B462C6E90B
:1012400005324FF40062C6E9082A4FF0020A07226D
:10125000C6E900140DA9CDF84CA0C6E90398CDE964
:101260000DA2CDE90F92CDE911BA06F06FFA294629
:101270004FF6FF7230460194C5E90078C5E9027463
:1012800006F084FA384604F053F929464FF6FF7207
:101290003046C5E900A8C5E9027406F077FA0823CC
:1012A00029464FF6FF723046C5E900B8C5E9023459
:1012B00006F06CFA4FF40C734FF6FF722946019357
:1012C0003046019BAF60EB60C5E9009806F05EFA1E
:1012D00040F22B7130461A4D06F077FA4FF020435A
:1012E00043F2D202642040F215261A6004F020F97D
:1012F000144B154A28462C62C5E90023C5E902476C
:1013000024E000BF1B00000300ED00E000380240B5
:1013100000040240F404002078030020002802406A
:10132000002002400008024000180240340500205E
:101330000030024000B002405C030020400100A0E9
:10134000A004002068474020005C0040C5E9044438
:10135000C5E9064404F00FFE2146284605F032F8A0
:1013600021462846404D05F053F8342221460DEB26
:10137000020030F04DFA3D4B2821352040F2352C4B
:101380002C61AC8685F83640C5E900340923C5E9EF
:1013900005130B23C5E9070340F21B132846C5E9D3
:1013A000096340F21D13C5E90244C5E90BC305F00A
:1013B000DBF8FF214FF4806E4FF4F0724FF4887326
:1013C00028460D941893ADF864408DF86640CDE939
:1013D00012140521CDE914E14FF04041CDE90E246E
:1013E000CDE9161222460DA9CDE9103A05F087F98C
:1013F0001F48204B0462C0E90037C0E902984FF44F
:10140000A0634FF01808C0E90644C0E9048305F062
:10141000D9FA0DA8FFF78AFD9DF83400FFF7ACFD5F
:101420005C2004F0E9F800F03BFB00F065FB00F005
:1014300062FB06F0EFFB104A2146104806F024FC40
:101440000F4B104A214618600F4806F01DFC0F4B49
:101450000F4A214618600F4806F016FC0E4B186024
:1014600006F0F2FBFEE700BFF80300200068014031
:10147000AC030020001000A054270308890E0008C8
:101480007403002030270308071B000870030020A6
:101490000C270308853600086C0300200268034B04
:1014A0009A4201D104F032B8704700BF00100040EA
:1014B000704700000D4B82B00F216FF001001A6CD5
:1014C00042F080521A641A6C02F080520092009A24
:1014D0005A6C42F480425A6400225B6C03F48043ED
:1014E0000193019B02B004F047B800BF00380240EE
:1014F000026882B0084B9A420BD1D3F8302803F52A
:10150000006342F480521A631B6B03F4805301930F
:10151000019B02B0704700BF003002400E4B07B580
:1015200002689A4215D1A3F5F04305215A201A6B9F
:1015300042F400021A6300221B6B03F400030193C0
:10154000019B04F019F85A2003B05DF804EB04F095
:1015500045B803B05DF804FB00B0024010B5A8B078
:1015600004461422002102A830F052F984220021FE
:1015700007A830F04DF92268174B9A422AD14FF450
:10158000803307A8079305F057FE08B1FFF790FFD7
:10159000124C4FF4C07201211148236B43F08003B9
:1015A0002363236B03F080030093009B1223CDE998
:1015B00002230323CDE90413042302A9069304F0B4
:1015C00015FA236C43F400032364236C03F4000333
:1015D0000193019B28B010BD005C00400038024020
:1015E000001C0240026808B5094B9A420FD1094A13
:1015F00080210948136C23F40003136404F0DAFA21
:101600004FF480710448BDE8084004F0D3BA08BD27
:10161000005C004000380240001C024070B5ACB0D5
:1016200004461422002106A830F0F2F8842200219A
:101630000BA830F0EDF82268484B9A4240F08C80BD
:101640000823052001240B934FF4C0731093022349
:10165000CDE911304FF400330BA8CDE9154305F067
:10166000EBFD08B1FFF724FF3D4B002402250E26B9
:101670005A6C06A93B4842F080625A645A6C02F0E8
:1016800080620092009A1A6B42F010021A631A6B81
:1016900002F010020192019A1A6B42F400721A636E
:1016A0001A6B02F400720292029A1A6B42F4806280
:1016B0001A631A6B02F480620392039A1A6B42F067
:1016C00040021A631A6B02F040020492049A1A6BE9
:1016D00042F480721A631B6B03F480730593059BBD
:1016E0001023CDE90635CDE908440A9604F07EF9C9
:1016F0004EF6FF7306A91C480A96CDE90635CDE9DA
:10170000084404F073F9F72306A918480A96CDE9AE
:101710000635CDE9084404F069F94FF4805306A971
:101720001348CDE906350923CDE908440A9304F0AE
:101730005DF94FF4464306A90E480A96CDE90635F1
:10174000CDE9084404F052F958202246052103F05F
:1017500013FF582003F042FF2CB070BD0068014019
:1017600000380240001002400024024000280240DD
:101770000018024000200240142200212DE9F0410F
:101780008AB004460DEB020030F042F822682C4B80
:101790009A4251D12B4B0225032409269A6B4FF014
:1017A000040805A9284842F0020200279A639A6BB0
:1017B00002F002020192019A1A6B42F010021A63BF
:1017C0001A6B02F010020292029A1A6B42F00202A5
:1017D0001A631A6B02F002020392039A1A6B42F028
:1017E00008021A631B6B03F008030493049BCDE902
:1017F0000585CDE9084604F0F9F8402305A913480A
:10180000CDE905350A23CDE90774099304F0EEF814
:1018100005A90E480996CDE90585CDE9077404F0C0
:10182000E5F84FF4605305A909480996CDE9053557
:10183000CDE9077404F0DAF80AB0BDE8F08100BF22
:10184000001000A0003802400010024000040240D6
:10185000000C0240F0B5002387B00393294B1E68AB
:10186000002E4DD10122022703250C241A6001A964
:10187000254B26489A6B42F001029A639B6B03F05A
:1018800001030093009B4FF68373CDE90454CDE927
:10189000013704F0ABF848F2331301A91C48059452
:1018A000CDE90137CDE9036504F0A0F84CF20373EC
:1018B00001A918480594CDE90137CDE9036504F085
:1018C00095F84FF63F0301A913480594CDE9013778
:1018D000CDE9036504F08AF8282301A90F4805948F
:1018E000CDE90137CDE9036504F080F8082301A9AB
:1018F0000B480594CDE90137CDE9036504F076F88E
:1019000007B0F0BD5805002000380240001002402A
:1019100000180240000C024000140240001C02406B
:1019200000080240214B1A6C42F0100270B51A6494
:1019300088B01B6C054601A903A803F010030293AD
:10194000029B05F05BFC069B4BBB05F047FC184E69
:10195000184B336040F2E733F360174BB0FBF3F3FF
:10196000013B3046736000233361B360B36106F01E
:1019700093F8044680B9304605F040FF044658B954
:10198000362003F02BFE0F2D0DD822462946362097
:1019900003F0F2FD094B1D60204608B070BD05F054
:1019A0001DFC4000D3E70124F6E700BF00380240E9
:1019B0005C0500200010004040420F003C00002069
:1019C0007047FEE7FEE7FEE7FEE77047014805F0D7
:1019D00057BF00BF5C050020014804F033BE00BFC4
:1019E000F8030020014803F030BF00BFF4040020DA
:1019F0000120704708B52FF0BFFF162303604FF09A
:101A0000FF3008BD08B52FF0B7FF16230360FEE7CF
:101A100070B50D4614460E46731B9C4201DC2046F1
:101A200070BDAFF3008006F8010BF5E770B50D4609
:101A300014460E46731B9C4201DC204670BD16F80E
:101A4000010BAFF30080F5E74FF0FF3070474FF424
:101A5000005300204B607047012070470020704702
:101A60000B4A0346116810B509B90A49116010689C
:101A700009490A4C0344091B8B4206D92FF07CFF0D
:101A80000C2303604FF0FF3010BD1360FCE700BF74
:101A9000A80500207863012000000520000A00004E
:101AA00070470000DFF834D0002103E00C4B5B5896
:101AB000435004310B480C4B42189A42F6D30B4A60
:101AC00002E0002342F8043B094B9A42F9D303F0A9
:101AD00023FC2FF057FFFFF777FA7047000005202F
:101AE000387F03080000002024010020400300206C
:101AF00074630120FEE7704708B501F08BF9BDE87B
:101B0000084001F00FB901F087B9406870474160A3
:101B1000704700004FF0E022D2F8FC3D43F08073A4
:101B2000C2F8FC3D054B064AD3F8B01F0A43C3F880
:101B3000B02F1A6842F001021A607047001000E0EE
:101B400055CEACC5521A02EB5302B2FBF3F070470C
:101B5000014B5868704700BF001000E0704710B597
:101B600004460C212EF051FC204610BD036810B530
:101B70001B69044631B19847A26863689B1A034405
:101B8000636010BD9847A060FBE70000024B702027
:101B9000024A1360DB68184710000020AC050020E3
:101BA000704710B5044604212EF02FFC204610BDCE
:101BB00073B50E4E0D461446336813B9002002B0BB
:101BC00070BD1B69702098470028F7D033687020DB
:101BD00001AA0DF106015B699847BDF804300120A8
:101BE0002B60BDF806302360E9E700BFAC0500209C
:101BF0007FB501238DF817204FF47A72CDE90132B9
:101C00000DF1170200920A460146054804F022FA37
:101C100010B1034804F004FA07B05DF804FB00BFFC
:101C2000A00400207FB500230A464FF47A718DF896
:101C300017300123CDE901310DF117010091014663
:101C4000054804F0E1FA10B1034804F0E9F99DF801
:101C5000170007B05DF804FBA0040020032823D878
:101C6000DFE800F0020B131A104B102110481A681D
:101C7000B2FA82F2520904F03DB80C4B40215A6886
:101C8000B2FA82F252090B48F5E7084B80219A68B4
:101C9000B2FA82F25209F6E7044B40210648DA68AC
:101CA000B2FA82F25209E6E7704700BFB0050020A1
:101CB000000402400008024000180240032823D814
:101CC000DFE800F0020B131A104B102110481A68BD
:101CD000003A18BF012204F00DB80C4B40215A689D
:101CE000003A18BF01220B48F5E7084B80219A689B
:101CF000003A18BF0122F6E7044B40210648DA6893
:101D0000003A18BF0122E6E7704700BFB005002087
:101D100000040240000802400018024003280FD8C7
:101D2000DFE800F00206090B1021064803F0E7BFC8
:101D300040210548FAE78021FBE740210348F5E709
:101D4000704700BF00040240000802400018024033
:101D500008B5032813D8DFE800F0020A0D0F1021A0
:101D6000084803F0C1FF431E5842584108BD4021B6
:101D70000548F6E78021FBE740210448F1E7002011
:101D8000F1E700BF000402400008024000180240D2
:101D900070B5084D00240126E0B2FFF7D9FF18B155
:101DA0002B68012B18BF2E6001340435052CF3D1AC
:101DB00070BD00BFB0050020012380F8781080F8C6
:101DC0007930704770470020704700004164003947
:101DD000024B18BF01211970704700BF3356012014
:101DE000704700207047836B0BB108461847704757
:101DF0004FF6FF707047406803689B69184770474B
:101E00007047704738B5044601F05CF9084923680B
:101E10002046084DD3F8903098470023284684F890
:101E20004A30FFF777FE0123256184F8703038BD12
:101E3000000000C0C005002001F0E6B801F0EAB8DB
:101E400070B501F069F910490023C1F88430BFF37F
:101E50004F8FD1F8803043F6E074C3F3C900C3F369
:101E60004E335B0103EA0406024646EA8275013AF4
:101E7000C1F87452F9D2203B13F1200FF2D1BFF315
:101E80004F8FBFF36F8F70BD00ED00E001F046B9DA
:101E900001F096B801F068BA01F070BA01F09AB892
:101EA00010B5044616F0B6FA23682046D3F8BC30C5
:101EB000BDE81040184715F0C9BC10B50446842190
:101EC0002EF0A3FA204610BD90F834100D4B10B53B
:101ED00090F878401A788C4209D03AB90A490B4AEE
:101EE00008881488108001220C801A7010BD002A06
:101EF000FCD0064A0449148808880C80108000220F
:101F0000F3E700BF2C5601202A5601202856012055
:101F100070B50D46194635B9094B40F2FF21094A03
:101F200009482FF0B9F9C0E90F52003A074B18BF22
:101F300001221A700368BDE87040D3F8903018474A
:101F4000B8270308F02703083E280308325601206B
:101F500008B5094B1B888B4203D8084B1B8893425A
:101F600005D9074BA321074A07482FF095F9074BDE
:101F70001980074B1A8008BD285601202A560120D7
:101F800083280308E62803083E2803082E5601206C
:101F900030560120034690F87A0018B1586803685B
:101FA0001B68184770470000014608B5034B1868C6
:101FB00001B1012116F048FA012008BD3456012074
:101FC000034B00225A609A60024A1A60704700BFB1
:101FD000C0050020802703080121002208B508461B
:101FE00005F05CFF0A4B186028B90A4B28210A4A01
:101FF0000A482FF051F900220421012006F018F8B8
:10200000074B186018B9074B2C21034AF0E708BDAD
:10201000D0050020182A0308612A0308902A030823
:10202000CC050020D42A0308024B4FF0FF3118687A
:1020300005F08CBFD0050020014B186805F0C2BF29
:10204000D0050020024B0021186805F07FBF00BFBB
:10205000D0050020FFF7F0BF0023034803491A46CC
:10206000006806F02BB800BFCC050020040000205B
:1020700013B50023074C01A91A46206806F060F842
:102080004FF0FF33002201A9206806F059F802B092
:1020900010BD00BFCC05002003685B6C1847012011
:1020A000704703689B6A1847FEE700000E4B82B03A
:1020B0001A6B42F400021A631A6B02F400020192D6
:1020C000019A1A6942F400021A611A6922F40002A4
:1020D0001A61064B064A1A61064A5A614FF080623D
:1020E000054B9A6002B0704700380240F4040020AB
:1020F00085230008A920000800E100E040F2EF304D
:1021000070470000054B4FF080620360044BC3F83A
:102110008820BFF34F8FBFF36F8F7047682C030881
:1021200000E100E010B504464FF45A61FFF7EAFF02
:1021300020462EF06AF9204610BD000008B50A2896
:1021400009D8DFE800F006100E0808080810101083
:102150001000022008BD054B9021054A05482FF0CC
:102160009BF80020F6E70120F4E700BF162B0308D8
:10217000312B03087C2B030838B50C46887FFFF70A
:10218000DDFF174BA58AE28A586342EA05422169BE
:102190005A64628BD963521B1A642568082D0ED1CC
:1021A0009A611A6158620F4A207F42EA0062DA613E
:1021B000E2681A620C4A5961D9601A6038BD00227F
:1021C000D8611A61E1680A0A4809C1F3C40102F43E
:1021D000784200F4FC6002430A439A63034AECE746
:1021E00000B00240090001000123020001230300A6
:1021F00008B50B280BD8DFE800F00612100A0A0A0F
:102200000A0808080808022008BD0520FCE7054B5D
:102210006F21054A05482FF03FF80020F4E7012020
:10222000F2E700BF162B0308BE2B03087C2B030824
:102230002DE9F04191F81D800C464046FFF7D8FF8C
:10224000A77F05463846FFF7D3FF06463846FFF717
:1022500075FFA18A628B434B521A1A649A61228BD2
:10226000521A1A61E28A586342EA014221695A64A9
:102270006268D963DA602068802828D0227F0FD86E
:10228000202866D0402864D004281AD045EA026588
:10229000344BB84545F40035DD6160D0324A44E046
:1022A000B0F5807F04D0B0F5007FEFD12F4800E07B
:1022B0002F4840EA0262DA61E2681A625E6259619E
:1022C00032E045EA026242F40032DA61F6E7A068E1
:1022D000021DDA62227F45EA026545F40035DD61C0
:1022E0005E625961017841B1012921D0214B4FF43F
:1022F0008D71214A21482EF0CFFFDA69418822F4FE
:102300007F42013922F0100242EA01220121DA6102
:10231000144BDA6942F02002DA61DA699206FCD4E1
:1023200010229A600029B9D0154A1A60BDE8F081E0
:10233000B2F1FF01DA69408822F47F4218BF01211F
:10234000013822F0100242EA002242F01002DA6163
:10235000DEE745EA0262034B42F40032B5E742F29F
:102360000132E2E700B0024001230100090002004F
:102370000A000200082C0308222C03087C2B030807
:1023800001230200024B1B68586803685B69184709
:102390003456012070B504460A4B0C300026254601
:1023A000602260602672667245F8203B294616F06E
:1023B0009FF904F55A63EE6024359D42FBD1204617
:1023C00070BD00BF682C0308034B1A68D207FCD409
:1023D00023229A60704700BF00B00240094B5A693F
:1023E000D2030AD5BFF34F8F08440029A0EB0102A6
:1023F00004DCBFF34F8FBFF36F8F70472039C3F8F2
:102400006822F2E700ED00E030B5104C2568ED07DA
:10241000FCD423250904FF2BA56041F001014FF0F6
:10242000020565636164E0630AD00949656241EAB7
:102430000363E361074B22626061E060236030BDAB
:10244000E561039BA363044BF8E700BF00B00240C3
:1024500009000100010002000100030030B50F4C2B
:102460002568ED07FCD423251204FF2BA56042F05C
:1024700001024FF0020565636264E063E16008D029
:102480001B0643F00213E361054B65626061236044
:1024900030BD044BE3610123F9E700BF00B0024007
:1024A00001000200020002FF30B50B4C2568ED0769
:1024B000FCD4232512041B06A56042F0010202256C
:1024C00043F4003365636264E063E160E361034BFE
:1024D00065626061236030BD00B00240010002000F
:1024E0004069704790F844007047036B23B9C06A95
:1024F000003818BF0120704701207047806870477E
:10250000043010B50C460FC884E80F0010BD7047AA
:1025100008B5034A40F21221024B03482EF0BCFEDC
:10252000B02C03088F4803080B2D030810B5044690
:1025300048212DF06AFF204610BD00002DE9F04330
:102540001D46ADF51F7D436B06460F469046BDF810
:102550009842002B35D0002203A8DFF8A490CDE9E3
:1025600001320DF0BFFE4FF4F4725021249024A8E4
:1025700007F06DFE4246394624A808F0C1FD01214E
:1025800024A807F05FFF022324A88DF8D83007F0B5
:10259000FAFF2B9B419AA342BDF89C7228BF2346A9
:1025A0009742A4EB030428BF174603EB43086400DB
:1025B000479B9F4209D824A807F066FF24A807F08C
:1025C00093FE0DF51F7DBDE8F083012201A924A82B
:1025D00008F022F8736B03EB0800984201D82544F9
:1025E000E6E759789A78C90009EA022201F4FC6109
:1025F0000A4313F8031B42EAD10225F8022BECE749
:1026000000F8FFFF0A4A02600022C0E90522C0E983
:102610000722C0E90922C0E90B22C0E90D12C0E976
:102620000F2280F84420C0E90322C0E9012270474C
:10263000E02F030810B40C4611461A46036B3BB159
:10264000036C806BE41A20445DF8044B2FF0E8B86B
:10265000C06AF8E7036B10B573B1036C826BC91ADB
:102660005318525C98785C780004DB7840EA0420C8
:10267000104340EA036010BDC36A5858FBE7036B80
:1026800043B1036CC91A836B5A18585C527840EAFC
:1026900002207047C36A585A7047000070B504465C
:1026A000006B0D461646D8B1E36B934208D209235E
:1026B0000D4A65210D4884F844300D4B2EF0ECFD99
:1026C0000368DB689847206B3246A16B03681B697F
:1026D000984710B90D2384F84430A06B256470BD71
:1026E000E06A0844FBE700BF6C2D03080B2D0308CC
:1026F000592D03082DE9F843436904462BB9234BB0
:10270000AA21234A23482EF0C7FD08228169FFF73A
:10271000C5FFA16943F2300646F264370431204612
:10272000FFF798FFA3691844A36A00F108029A42D0
:1027300006D3012300206361236AA361BDE8F88307
:10274000636909300822013320F0010120466361EA
:10275000A161FFF7A3FFD4F8189020464946FFF780
:102760008EFF09F1020180462046FFF788FF09F13C
:10277000040105462046FFF76DFFB045D2D1BD42AA
:10278000D0D10028CED00120D8E700BFAE2D03085D
:10279000F72D03080B2D03082DE9F04F0446ADF586
:1027A0001F7D8A461646816908229846FFF776FF04
:1027B000A7692046391DFFF74DFF07F108010246C2
:1027C00005462046FFF76AFF636B074633B93C4B6B
:1027D00040F2AB113B4A3C482EF05EFD002203A8BC
:1027E000CDE901320DF07EFD4FF4F47250212490BA
:1027F00024A807F02CFD2A46394624A808F080FCBE
:10280000012124A807F01EFE022324A88DF8D83049
:1028100007F0B9FEBAF90250479BAB4229D3BAF987
:1028200000904FEA4808BAF804702B9B08FB056635
:102830004F44BAF80250DFF894B03FB29F4228BF2D
:102840001F46BAF8063009EB490A1D44419B2DB2D8
:102850009D4228BF1D46479BAB4210D324A807F0DA
:1028600013FE24A807F040FD01200DF51F7DBDE8F3
:10287000F08F012201A924A807F0CEFECCE70122A7
:1028800001A924A807F0C8FE626B49465244B94228
:1028900002F1030201D34644DDE712F8020C12F8FC
:1028A000013CC0000BEA032300F4FC60034312F870
:1028B000030C43EAD00326F811300131E7E700BFEB
:1028C0002A2E0308802E03080B2D030800F8FFFFB3
:1028D0000129036838BF0121DB6A70B50D46044643
:1028E0009847A84204D223682046DB6A98470546E9
:1028F0006B1EE6691022204606EB031606F108015E
:10290000FFF7CCFE06F110012046FFF7A3FE236A75
:10291000043B0344C4E9055370BD00000021482274
:102920002DE9F0410446816180F84410FFF7B6FEBE
:10293000A6690423624A31462046FFF77BFE40B178
:102940000323604AF22184F844305F4B5F482EF045
:10295000A3FC06F1080104235D4A2046A161FFF7AC
:1029600069FE30B10423574AFA2184F84430594BA8
:10297000ECE706F10C010423574A2046A161FFF75A
:1029800059FE074638B105234E4A40F2011184F83A
:102990004430524BDAE706F110012046FFF75AFEA9
:1029A000054620B94E4B40F20711464ACEE706F1E4
:1029B000140804234B4A20464146FFF73BFE0028FB
:1029C00049D0062384F844300423474A06F118010D
:1029D0002046FFF72FFE00283FD0072384F844301D
:1029E0004544424F0C2220462946FFF757FE05F189
:1029F000080604233A4620463146FFF71BFE94F8AA
:102A00004430002848D0002B48D1A36AAB4249D8B3
:102A100005F10C0304352046A3612946FFF71AFE91
:102A20003044294660622046FFF714FE0644042223
:102A300020463146FFF732FE04232D4A3146204618
:102A4000FFF7F8FD002838D10123E6616361A3692F
:102A50002362BDE8F0810127B6E7002FC0D006F160
:102A600020012046FFF7F6FD4FF47A7306F130019E
:102A7000B0FBF3F060602046FFF7ECFD06F140018B
:102A8000A0602046FFF7E6FD06F14401E060204625
:102A9000FFF7E0FD2061A3E7002BB9D00A2384F8FB
:102AA0004430D6E7291D2046FFF7D4FD85190C22B6
:102AB00020462946FFF7F2FD99E70B23EFE700BF19
:102AC000DA2E0308F82E0308DF2E03080B2D030867
:102AD000252F03082A2F0308422F0308472F030836
:102AE0005D2F0308692F03086E2F0308732F030857
:102AF000782F0308C0E90A2100220263FFF70EBF06
:102B000010B5002304460846E3620B6821639B6806
:102B10009847A0622046BDE81040FFF7FFBE70B4A2
:102B2000BDF80C50BDF810602AB123B1CDE90356B1
:102B300070BCFFF703BD70BC704700002DE9F04F7B
:102B40009946436985B004460F4690462BB9294BF8
:102B50007721294A29482EF09FFB08228169FFF737
:102B60009DFDA66920463146FFF789FDB11C8346CD
:102B70002046FFF784FD311D82462046FFF76AFD9F
:102B800006F10801A36A054642189A4226D243F28A
:102B900030039B4517D146F264339A4513D190B167
:102BA0000246A1612046FFF779FD0E9B01462A46A9
:102BB0002046CDF80080CDE901933B46FFF7AFFFFB
:102BC000636901336361A3692B4405B90833013399
:102BD000626A23F001039342A36109D1012301201A
:102BE0006361236AA36180F0010005B0BDE8F08F46
:102BF0000020F8E7AE2D03087D2F03080B2D0308F6
:102C0000012070474020704700EB8110083070476A
:102C100000EB811008307047012070474FF46F704F
:102C200070474FF46F7303FB0100083070474FF497
:102C30006F7303FB010008307047012070471020BC
:102C4000704700EB01100830704700EB01100830AE
:102C50007047084601F0C4B9034B10B50446036041
:102C600014F04AFB204610BD8830030810B5044616
:102C7000FFF7F2FF482120462DF0C7FB204610BD8C
:102C8000034B10B50446036014F036FB204610BD1C
:102C90005430030810B50446FFF7F2FF4FF471718A
:102CA00020462DF0B2FB204610BD0000034B10B5AE
:102CB0000446036014F020FB204610BD20300308BA
:102CC00010B50446FFF7F2FF182120462DF09DFBBA
:102CD000204610BD084B10B50446036000F57C701B
:102CE000FFF7BAFF04F12C00FFF7CAFF04F114004C
:102CF000FFF7DCFF204610BDBC30030808B50248D2
:102D0000FFF7E8FF08BD00BFAC14002010B5044673
:102D1000FFF7E0FF40F29C5120462DF076FB204665
:102D200010BD00002DE9F34100F044FD00240546EC
:102D300000F044FD234601462246284600941EF03A
:102D4000BFFA274B274A2046274D1A6001F00CFB9B
:102D5000264B274A27489A601EF01AFA2B68BFF3C1
:102D60005B8FDB0735D428462DF051FB88B3224C0E
:102D7000224B04F5886604F1140004F12C0804F5D4
:102D80007C7723606060C4F80880E760266114F0F7
:102D9000B5FA1B4B4046636114F0B0FA194B384644
:102DA000E36214F0ABFA184B04F58760C4F8F03313
:102DB00002F004F9224604F58761304602F0F4F887
:102DC000304601F00DF911482EF084FA28462DF016
:102DD0002AFB0F4802B0BDE8F041FFF713B800BF6F
:102DE0009856012058060020A814002078060020DC
:102DF0005C06002008000020AC140020BC30030852
:102E0000203003085430030888300308FD2C0008E4
:102E1000D405002070470000014814F080BD00BFB9
:102E2000D405002070B5264E264B274C3046274D42
:102E30002360FFF7AFFA284623F054FB24481BF029
:102E400017FF244B00224FF4807123481A8683F821
:102E500058205A6683F870205A67DC60C3E9121262
:102E60001E49C3E91A121E49C3E91E011D491E4825
:102E7000C3F880101D490B604FF4F071C3E90422C0
:102E8000C3E90622C3E90822C3E90A22C3E90E22E4
:102E9000C3E91022C3E91422C3E91722C3E901657B
:102EA0000180134883F8342001804FF48871114861
:102EB00001801148018011490A70114A1A6070BDE1
:102EC00004070020A8270308A41400207806002087
:102ED0005C060020D4050020000001010100000173
:102EE0000004440016001400285601203456012026
:102EF0002E5601202A560120305601202C56012042
:102F0000342903080148FFF7FDB800BF040700207B
:102F10000020704781807047C180704701817047F1
:102F2000418170477047704770477047704710B4D1
:102F3000C4880368121B84885B6D091B12B25DF89C
:102F4000044B09B218474FF6FF7383814FF0FF33EC
:102F500003621368C36110607047002070478B885C
:102F6000838001207047704780F82610704790F8E2
:102F700026007047002210B5B1F90840B1F90A10D7
:102F8000028042808480C18010BD00220280428085
:102F90008280C28070470177704780ED080A7047D1
:102FA00080F82410704780F8251070470120704782
:102FB000983070478C3070478430704770470000FD
:102FC000034B902283F85A2383F85823704700BF9D
:102FD00000E100E0094A0A49D3680A48C3F30A033A
:102FE000013B9BB20B801169C1F30A0101390180D9
:102FF0001364536B43F0010353637047006801404F
:103000004A1A0020481A0020014BD3F8AC00704740
:1030100000680140024B0122C3F8AC105A627047AD
:1030200000680140124A5369DB0370B51ED50023C6
:10303000C2F88430BFF34F8FD2F8803043F6E0748B
:10304000C3F3C900C3F34E335B0103EA0406014630
:1030500046EA81750139C2F87452F9D2203B13F166
:10306000200FF2D1BFF34F8FBFF36F8F70BD00BF42
:1030700000ED00E07047704770473823002201FBE5
:103080000333C25490F838300BB9036C8364704733
:10309000704780F84C10704710B5044658212DF049
:1030A000B4F9204610BD10B504462C212DF0ADF921
:1030B000204610BD10B50446BC212DF0A6F92046CF
:1030C00010BD000038B5044614F015FC23689D6E51
:1030D0001AF060FB01462046A8472368084A2046AC
:1030E000D3F88C500023A2F57F31A847054B064A40
:1030F0005A60064A1A649A644FF4FF225A6438BD33
:1031000000F807C00C1B0020641B002000F40BC05B
:1031100014F0D8BB14F0E2BB14F09EBB14F01FBD3A
:1031200090F8252012B103685B69184770470000CA
:1031300008B531B1044B40F29711044A04482EF00F
:10314000ABF890F8390008BDC8300308DC3003083C
:103150006932030810B531B1064B40F29111064AAD
:1031600006482EF099F8406811460368BDE8104003
:103170001B6B1847C8300308AB32030869320308D9
:1031800008B529B1034B7A21034A04482EF084F88C
:10319000006908BDC83003085C34030869320308BD
:1031A00008B529B1054B8321054A06482EF074F86D
:1031B00041618160C0E9063208BD00BFC830030824
:1031C000143603086932030810B5044629B1274BA9
:1031D000A421274A27482EF05FF8052A34D8DFE8D3
:1031E00002F003292F34393E406803681B69984771
:1031F00050B34FF0FF31606D04F0F4FD0023012265
:1032000094F83E1084F83B3084F83920A360636161
:1032100001B1226284F83E306362E36A2BB9012374
:10322000206D84F83A3004F0CDFE606DBDE81040AA
:1032300004F008BE002380F8393084F83E3003E003
:10324000036200238360436110BD03620023836037
:103250004361F2E7002380F839300123EDE7003BBA
:1032600018BF012380F83D30EEE700BFC8300308E7
:10327000D33703086932030890F825201AB190F873
:10328000242002B11860704770B50446164629B173
:10329000314BE721314A32482DF0FEFF90F83930AA
:1032A00033B1304B1B6893F86B204369134443617F
:1032B000E36A002B4DD0E169D4E905325343A2689B
:1032C0004A43934220D2236A002B42D04FF0FF3171
:1032D000606D04F087FD236A0BB10023E362E36AAB
:1032E000FBB90125606D04F0ADFD94F839300BB9E0
:1032F000236A3BB1E36A2BB90123206D84F83A308D
:1033000004F060FE284670BD94F84C000028DDD023
:103310009B1AB3FBF1F2994298BF02F1FF3262624D
:10332000D4E7002294F83C50A3623046E262E2689F
:103330002261A2680132A260336333685B699847F7
:10334000002DCED194F83D30002BCBD184F83950EC
:10335000C8E70125C9E700BFC8300308AA39030838
:103360006932030834560120034B4FF080629A60A3
:103370004FF080729A60704700E100E0084B4FF018
:103380008062C3F88820BFF34F8FBFF36F8F4FF079
:103390008072C3F88820BFF34F8FBFF36F8F7047E1
:1033A00000E100E038B5034690F8380038BB012250
:1033B0009860D8609A634FF4807258619A874FF48E
:1033C000F0729861D861186258629862D862186386
:1033D000586383F83E00CA864FF4887281F834003F
:1033E0000A8708639A6C186102F5FF24D3E9101567
:1033F00029448C420AD9084B5821084A03E0084B5B
:1034000040F2F511074A08482DF046FF1A6302F50D
:103410007F329C645A6338BD083D0308483D030869
:103420004E3B03087E3B030869320308002370B556
:10343000124E05468380124B0360336893F8582080
:103440000AB1D86C00B998680368DB6A984733689A
:10345000B0FA80F4D86C640930B10368DB6A98472D
:10346000002808BF44F001042CB9064B2C21064A61
:1034700006482DF011FF284670BD00BF34560120CC
:10348000F03F0308EE3E03084C3F0308853F030866
:1034900070B5254E3568BFF35B8F15F0010540D13F
:1034A00030462CF0B4FF00283BD0204C204B04F1D8
:1034B00034002561E584A562A585C4E90035C4E929
:1034C00002551BF0BAFE04F1580016F0C9FD194B65
:1034D0002046A365184B40F8843BFFF7A7FF174B26
:1034E0001748C4F884302433C4F89050C4F88C30A2
:1034F0004FF4C803C4F89C50C4F8A850C4E9283558
:103500000023C4F8AC30C4F8B030C4F8B430C4F808
:10351000B8300C4BC4F898302DF0DCFE30462CF05F
:1035200082FF024870BD00BF4C1A0020501A0020D4
:10353000BC71030810400308884003087071030839
:10354000BD2F00085071030838B5184C23685BB3D1
:10355000174B184A1B6C11888B4216D1164B00254D
:10356000198803F0F9F8236893F86A2083F87C50EF
:10357000013283F86A20FEF76FFD206814F04AFFDD
:103580002846BDE83840FEF769BB03F0E5F824683B
:10359000236820461B6A98470123002084F87C306A
:1035A000BDE83840FEF78ABB38BD00BF3456012065
:1035B000006801404A1A0020481A00202DE9F7430C
:1035C00004464FF4707894F83A304FF0FF31002BF6
:1035D00031D0606D04F006FC276BA36ABB4200D1BA
:1035E000676B266A656856B32B68314628465B6A66
:1035F00098470023236284F83B30606D04F022FC7E
:103600002B684FF4F0723946CDF8008028465E6989
:103610004FF48873B0474FF0FF310646606D04F0F9
:10362000E1FB94F83B30E3B1002384F83B30606D5C
:1036300004F008FCC7E7206D04F088FCC3E7636A68
:10364000002BDAD02B682846D3E909939847616AA2
:1036500001442846C847A368626A66621344A360AF
:10366000CBE7E7625EB12B6828469B6A9847013832
:103670000023E06084F83C6084F83A30D7E701200A
:10368000F6E70000014808B5FFF798FF0C1B002083
:103690000368042270B504465E6A00230D46B047F5
:1036A0004FF0FF31606D04F09DFB382303FB0542B2
:1036B000D16A09B10021D16203FB0545012385F8D8
:1036C0003B30002385F83930606DBDE8704004F070
:1036D000B9BB38B500EB810304460D461146586866
:1036E0000368DB68984729462046FFF7D1FF38BDBD
:1036F00070B50D461146044600EB8502506802681D
:1037000096681A46B04729462046FFF7C1FF70BDAC
:1037100038B5164900251648FEF774FF154C164BB0
:1037200001202A46294623604FF48073A564A387AD
:1037300084F84C0084F83E50C4E91055C4E914558F
:10374000C4E90155C4E90355C4E90555C4E9075561
:10375000C4E90955C4E90B55C4E90D5504F09EFBB5
:103760002065284604F0FCFA606538BDAC1B0020DB
:10377000641B00200C1B0020D4400308704710B5C8
:10378000044604212CF041FE204610BD012908B555
:1037900006D0022908D059B900F032FE006808BDF1
:1037A00000F02EFE4068FAE700F02AFE8068F6E797
:1037B0000020F4E7004870472041030810207047BC
:1037C00013B5002451B1036801AA01948DF8034098
:1037D0009C680DF10303A04702B010BD0846FBE74B
:1037E000C0897047008A7047C088704780887047DA
:1037F000807A00F07F007047807AC009704700200F
:10380000704700009FED010A704700BF00000000F4
:10381000704710B5044608212CF0F7FD204610BD76
:103820007047704700F598730868496803C370478C
:10383000704770474160704770470000064BC0F802
:103840004801C0F84C310023C0F8503100F5A27394
:10385000C0F84031704700BFAD3A00080123037241
:103860007047704770477047704710B4416803460F
:10387000C2689B68541001EB6200D20748BF0A5926
:103880005DF8044B48BFD35818470346406830B131
:103890009A681AB9D86800F0010070470120704793
:1038A00010B504460C212CF0B0FD204610BD10B51B
:1038B000044610212CF0A9FD204610BD10B5044689
:1038C0004FF4AE712CF0A1FD204610BD10B504469A
:1038D00040212CF09AFD204610BD10B50446402131
:1038E0002CF093FD204610BD10B519F053FF03686E
:1038F000BDE81040DB6B1847054B01461B782BB128
:10390000406818B103680C315B6E1847704700BF00
:1039100033560120054B01461B782BB1406818B186
:1039200003680C315B6E1847704700BF33560120A7
:10393000037A70B50546BBB940680368DB699847F0
:1039400004463CB9686805F10C010368BDE87040A5
:103950001B6E1847A18820466B8FC91A236809B2CD
:103960001B6B9847A469ECE770BD037A70B50546F8
:10397000BBB940680368DB69984704463CB968688E
:1039800005F10C010368BDE870401B6E1847E18823
:1039900020466B8FC91A236809B25B6B9847A469EC
:1039A000ECE770BD10B50446D0F8400158B103688B
:1039B000DB68984738B1D4F8400103689B689847A2
:1039C0000023C4F8403110BD70B5044690F83900AA
:1039D000013094F83830C0B2984284F8390005D9E3
:1039E00001232372002384F8393070BDB4F93A20E2
:1039F00000211CF08BF8C30706D500284FF6FF7393
:103A0000C8BF0123184400B2638AC01AA087606847
:103A10000368DB69984705462DB960680368BDE80F
:103A200070405B691847E9882846A38F19442B68C2
:103A300009B25B6B9847AD69EEE770B5044690F844
:103A40003900013094F83830C0B2984284F8390017
:103A500005D901232372002384F8393070BDB4F9ED
:103A60003A2000211CF052F8C30706D500284FF673
:103A7000FF73C8BF0123184400B2238AC01AA0876D
:103A800060680368DB69984705462DB9606803687C
:103A9000BDE870405B691847A9882846A38F194480
:103AA0002B6809B21B6B9847AD69EEE72DE9F14F22
:103AB000D0E9556A0746B06803681B6A9847B0F5B5
:103AC0006F7F05D2444BA321444A45482DF0E4FBC7
:103AD000706803681B6A98470F2803D8414BA421DC
:103AE0003E4AF2E7F06803681B6A98470B2803D840
:103AF0003D4BA521394AE8E7DFF8F49019F04AFE7A
:103B0000043019F06CFED9F8000010B10368DB68CE
:103B10009847D9F8000010B103681B689847DFF890
:103B2000D480D8F8000010B103685B699847D7F8D3
:103B30003C0110B103685B689847D8F8000010B1E9
:103B400003681B689847D7F83C0110B103689B686D
:103B50009847F06800214FF0000B03685B6A9847B4
:103B6000224B0446C0F804B080F808B05946036000
:103B7000B06803685B6A9847054601F079FA706897
:103B8000594603685B6A98470646294601F02CFAB5
:103B9000331DC7F83C612846C9F80040C8F80050FA
:103BA000CAF800302B68C6F808A0DB68EE639847B7
:103BB000336830461B689847214628461BF0A0FF13
:103BC000236820461B699847236820465B6901B03B
:103BD000BDE8F04F184700BF70420308FE420308DB
:103BE000DC43030823440308C6440308BC47030816
:103BF0007C560120785601202DE9F0411D460368CE
:103C0000044616461B6BBDF9187098472368314669
:103C100020465B6B98472368294620469B6B984754
:103C2000236839462046DB6BBDE8F04118470000A9
:103C30002DE9F74FD0E9556A0746B06803681B6A5B
:103C40009847B0F56F7F05D2544BA321544A55488D
:103C50002DF022FB706803681B6A98470F2803D871
:103C6000514BA4214E4AF2E7F06803681B6A98475B
:103C70003F2803D84D4BA521494AE8E7DFF83C919E
:103C800019F088FD043019F0AAFDD9F8000010B130
:103C90000368DB689847D9F8000010B103681B6817
:103CA0009847DFF81C81D8F8000010B103685B6901
:103CB0009847D7F83C0110B103685B689847D8F87B
:103CC000000010B103681B689847D7F83C0110B199
:103CD00003689B689847F068002103685B6A98470F
:103CE0000022334B054642600446027245F80C3B05
:103CF000284616F08FFA1423002223872D4BA28723
:103D00001B78002B35D101232372B0680021036892
:103D10005B6A9847054601F0ABF9706800210368BB
:103D20005B6A98470646294601F05EF9331DC7F8DD
:103D30003C612846C9F80040C8F80050CAF8003075
:103D40002B68C6F808A0DB68EE63984733683046F6
:103D50001B689847214628461BF0D2FE2368204660
:103D60001B699847236820465B6903B0BDE8F04FA4
:103D70001847DFF850B011462846BBF900300093D1
:103D80000D4BB3F90030FFF737FF284616F0BDF9A9
:103D9000BBF800305B426387B7E700BF704203089F
:103DA00069450308DC43030823440308C6440308A9
:103DB0000448030833560120285601207C56012070
:103DC000785601202A5601202DE9F74FD0E9556A8F
:103DD0000746B06803681B6A9847B0F5067F05D2AE
:103DE000544BA321544A55482DF056FA7068036885
:103DF0001B6A98470F2803D8514BA4214E4AF2E77B
:103E0000F06803681B6A98473F2803D84D4BA521EB
:103E1000494AE8E7DFF83C9119F0BCFC043019F09E
:103E2000DEFCD9F8000010B10368DB689847D9F8C8
:103E3000000010B103681B689847DFF81C81D8F8B0
:103E4000000010B103685B699847D7F83C0110B1D6
:103E500003685B689847D8F8000010B103681B68D6
:103E60009847D7F83C0110B103689B689847F06801
:103E7000002103685B6A98470022334B0546426085
:103E80000446027245F80C3B284616F0C3F9142389
:103E9000002223872D4BA2871B78002B35D10123CD
:103EA0002372B068002103685B6A9847054601F0F9
:103EB00009FA7068002103685B6A9847064629463C
:103EC00001F0DEF9331DC7F83C612846C9F800400F
:103ED000C8F80050CAF800302B68C6F808A0DB68A4
:103EE000EE639847336830461B689847214628465A
:103EF0001BF006FE236820461B699847236820466E
:103F00005B6903B0BDE8F04F1847114B1146DFF86D
:103F10004CB02846B3F900300093BBF90030FFF7EE
:103F20006BFE284616F0F1F8BBF800305B42638761
:103F3000B7E700BF704203085B460308DC43030891
:103F400023440308C6440308E0470308335601200E
:103F50002A5601207C56012078560120285601203F
:103F6000044B1B6893F858200AB1D86C00B99868C4
:103F7000704700BF34560120F8B5174604460E4678
:103F800019F0CEFC124B00251C602946114B236012
:103F9000114BC4E95135114B1868C4E953550368F6
:103FA000C4E94F559B68C4E955769847284600F008
:103FB000DBF9FFF7D5FF24F040F9FFF7D1FF24F03C
:103FC000B7F9FFF7CDFF24F0BFF92046F8BD00BFD9
:103FD00088560120684703085047030834560120DB
:103FE000064BC0F84801C0F84C310023C0F85031EE
:103FF00000F5A273C0F84031704700BFAD3A000829
:10400000064BC0F84801C0F84C310023C0F85031CD
:1040100000F5A273C0F84031704700BF313C000882
:10402000064BC0F84801C0F84C310023C0F85031AD
:1040300000F5A273C0F84031704700BFC93D0008C9
:10404000406A7047806A704770470B888A889BB2C5
:10405000D20A10B54C88C16943EA044351F82200E2
:10406000184410BD10B50446BAB1107B68B1537B3B
:10407000D27A1B0203F4E0631A43236A03EB820340
:104080001A888A4202D193F9020010BD05D801387E
:10409000043380B20028F3D1F7E70020F5E710B52C
:1040A00004462C212CF0B1F9204610BD30B58BB060
:1040B0000446BDF860500895BDF85C5007959DF822
:1040C000505006959DF84C5005959DF84850049524
:1040D0009DF8445003959DF8405002959DF83C5042
:1040E0000195BDF8385000951BF064F9064B204649
:1040F0002360159BE361169B2362199B63621A9BE5
:10410000A3620BB030BD00BF284803087047000011
:1041100030B5174D8FB02C68BFF35B8F14F00104DE
:1041200022D128462CF073F9F0B13F230122114926
:104130000993114B11480893114B0A9407930423D8
:10414000CDE90523CDE903322D2313220093332338
:10415000CDE90B44CDE90144FFF7A8FF09482DF054
:10416000B9F828462CF05FF904480FB030BD00BF05
:104170002C230020B0CA0B90F07E030830230020CF
:10418000007F03080D4100087047000030B5164D50
:104190008FB02C68BFF35B8F14F0010420D1284648
:1041A0002CF035F9E0B13F23012210490993104B5F
:1041B00010480893104B0A940594CDE90643042354
:1041C000CDE903320A23CDE90B440093CDE9014444
:1041D000FFF76CFF09482DF07DF828462CF023F9F5
:1041E00004480FB030BD00BF5C230020BCCB0B9057
:1041F000F87E030860230020047F0308894100083B
:104200007047000030B5174D8FB02C68BFF35B8F3F
:1042100014F0010422D128462CF0F9F8F0B13F2324
:10422000012211490993114B11480893114B0A942B
:104230000594CDE906430423CDE9033250230C2233
:1042400000935E23CDE90B44CDE90144FFF72EFF37
:1042500009482DF03FF828462CF0E5F804480FB047
:1042600030BD00BF8C230020CCCB0B90FC7E03081C
:1042700090230020087F03080142000800207047B7
:10428000002070470EB403B503AB002153F8042B94
:1042900001931AF00DFB02B05DF804EB03B0704718
:1042A0000CB407B504AB53F8042B01931AF000FBD0
:1042B00003B05DF804EB02B070470000436C10B52A
:1042C000044673B3038F2BB9184BC521184A1948FC
:1042D0002CF0E2FFC38E00EB43035B8C0BB31CF0AE
:1042E000A1F9238F012B03D8134BCB21134AEEE7FF
:1042F000E28E40F63F10531C9BB2092B194688BF33
:10430000A3F10A0104EB4101498C814209D10A2B36
:1043100004EB420228BF0023508C04EB4303588473
:1043200051842046BDE810401CF07EB88848030840
:10433000914803083C490308864903089449030847
:104340001CF03BB810B586B002AC84E806001A46F3
:104350000AAB214605930193099B0093089B18F033
:10436000B7FD06B010BD000038B518BB124B13489E
:104370001C681349B4B12268224402606268224476
:104380000A60A26814440F4B00221A8000F038F82B
:10439000054600F033F80C4B1C600C4B1D600C4BB9
:1043A000188007E00B4B03600B4B0B600B4B1C683A
:1043B000002CE8D138BD00BFC8230020C023002056
:1043C000BC230020C42300208C56012094560120D9
:1043D000905601208CCC0B9074CC0B90CCCC0B90D5
:1043E000044B1B6853F82100034B1B6803EB400090
:1043F000704700BFBC230020C02300200620704768
:1044000000487047CC23002010B5054CFFF7FAFE9A
:104410002060FFF77DFE6060FFF7B8FEA06010BD72
:10442000CC23002010B5002404600C6014601C60D4
:1044300010BD7047704770477047704730B585B002
:104440000368044601816D460146D3F884303C344C
:104450002846984795E8070084E8070005B030BD76
:1044600030B585B00368044641816D460146D3F8F6
:1044700084303C342846984795E8070084E80700D4
:1044800005B030BD0022028042808280C280704729
:1044900080F836107047036870B504461B6B1546EC
:1044A00098472368204629465B6EBDE87040184750
:1044B00000207047806C70477047704770477047A6
:1044C000704770477047704730B444680346C2680D
:1044D0009B68551004EB6200D20748BF625930BC9C
:1044E00048BFD35818470346406830B19A681AB994
:1044F000D86800F00100704701207047038A8B42A2
:1045000086BF00EB81004068002070470346018AA7
:10451000002010B582B2914202D84FF0FF3010BD9A
:1045200053F8044F421C94F83740002CF7D1104642
:10453000F0E7036810B51B6904469847011E06DBC7
:104540002368204689B2DB68BDE810401847002088
:1045500010BD038A00EB8303984200D1704750F8E6
:10456000042F82F83810F7E70346008A10B15B6821
:1045700093F83800704730B444680346C2689B68BB
:10458000551004EB6200D20748BF625930BC48BFE7
:10459000D35818470346406830B19A681AB9D868AA
:1045A00000F0010070470120704770B50D460446C9
:1045B0000121284616F03CFD2368294620465B6A07
:1045C000BDE87040184710B504464C212BF01DFF84
:1045D000204610BD10B504463C212BF016FF2046A6
:1045E00010BD10B5044610212BF00FFF204610BD62
:1045F00010B5044610212BF008FF204610BD10B561
:1046000004464FF46A712BF000FF204610BD08B538
:10461000FEF786FD08BD0000036870B55E6B0446BA
:10462000114B8DB21B682BB9104B6C21104A1148ED
:104630002CF032FE1049828D0988914203D80F4B2D
:104640006D210B4AF3E713F812200D4B1B6853F84A
:10465000220003681B6B9847291A3346204609B28B
:10466000BDE87040184700BF8C560120664A030819
:10467000A84A0308E34A0308905601202A4B03087E
:104680009456012008B5038A022B05D9084B412115
:10469000084A09482CF000FE00F114028A6200F179
:1046A0002402CA635A1C028200EB8300416008BDE9
:1046B000684B0308A14B03080F4C030838B500F101
:1046C000CC0304460D46994202D10368DB6A984741
:1046D00004F198039D4203D1236820461B6B984741
:1046E00004F5E074A54205D119F054F8BDE838404E
:1046F000FFF796BC38BD70B504460D460026228AE9
:10470000B3B29A420CD8606BC0B10368DB689847BB
:10471000A0B1606B29460368BDE870409B681847EC
:10472000B3B204EB83035868A84205D090F8373041
:1047300013B1002116F07CFC0136E0E770BD70B5C6
:104740000446806B0D4650B10368DB68984730B172
:10475000A06B29460368BDE870409B68184770BD90
:1047600000224FF0FF318260C0E9002170470368EA
:1047700070B504461B6B15469847236820462946AA
:104780005B6BBDE8704018470022C0E90122C0E918
:104790000322C0E90522C0E907224FF48072828417
:1047A000014A0260704700BFB84C030838B50446A0
:1047B0000D46262200212DF02BF82046FFF7E4FFBE
:1047C000064B2046294623602B88E384FF2384F888
:1047D000283016F00EFB204638BD00BF4475030894
:1047E00010B50446262200212DF012F82046FFF7CE
:1047F000CBFF054B204623600023A36284F82C30B6
:10480000012384F8243010BD8072030810B50446DB
:10481000262200212CF0FCFF2046FFF7B5FF0A4BB3
:104820004FF47F0220462360084BA3624FF6FF73CC
:10483000A3850023C4E90C324FF0FF322387E363E2
:10484000C4E9102310BD00BF607303086842030869
:1048500010B50446FFF7C4FF084B4FF0FF32204667
:1048600023604FF6FF73E3856FF07F43C4E90C23A9
:10487000002384F83830E36310BD00BFB07503082F
:104880002DE9F04F044695B000251AF08DFF27461C
:104890008D4B26222946E56304F16C0B47F8403B1B
:1048A00038462CF0B5FF3846FFF76EFF4FF0FF0893
:1048B000864B4FF6FF7604F1980A12A923645846F6
:1048C00084F8668004F1CC09A566ADF84860FFF76E
:1048D0006DFF5046FFF784FF7D4BA4F8C660484645
:1048E000C4F89830A4F8C86084F8CA60FFF778FF6D
:1048F000774B84F8FE8004F5807812A9C4F8CC3098
:104900004046A4F8FA60A4F8FC60ADF84860FFF7F0
:104910004DFF04F59673261D18460693FFF776FFA4
:104920006C4BC4F87451C4F82C3104F5BC731846B0
:104930000793FFF76BFF04F5E0731846099316F031
:1049400031FA04F5FE732421A4F80C520893624B4B
:10495000089AC4F8FC31614BC4F814220122C4F84F
:104960001032C4F82032089BC4F83452C4F8243200
:104970002823C4F8283204F50E73C4E98612C4E96A
:104980008B2518460393FFF763FF04F51E73184643
:104990000493FFF75DFF04F52E7318460593FFF7A8
:1049A00057FF4F4B2A4638462946C4E9E6344D4B5B
:1049B000C4E9E8354FF4887300934FF4F073FFF7C0
:1049C0001BF94FF07F4339463046A3660AAF12F019
:1049D000A9FC2A4658462946FFF7C9FE0723584630
:1049E00012A9ADF8483016F004FA5946304612F0D4
:1049F00099FC50469E221321FFF7B9FE04F5667B11
:104A0000082312AA504611A9ADF84430ADF8483039
:104A100016F003F851463046C4F8C0B04FF0FF3AE4
:104A200012F080FC2E2213214846FFF7A0FE092336
:104A300012AA11A94846ADF84430ADF8483015F037
:104A4000ECFF49463046C4F8F4B012F06BFC4A2241
:104A50004046C721FFF78BFE0A23404612A9ADF856
:104A6000483016F0C6F94146304612F05BFC5A2336
:104A70005C22C721069804F53E7800939823FFF73F
:104A8000BBF8D4F82C3106993846D3F88430C4F8F2
:104A90005CA1A4F86051984704F5B47397E8070047
:104AA00083E80700104B1B682BB9104B6021104A9C
:104AB00010482CF0F1FB104B1B88042B20D80F4B17
:104AC00061210B4AF4E700BF144E0308F07303089A
:104AD00058740308204D0308C84D0308B04D03085F
:104AE000FC4D0308BD4600088C560120664A0308A9
:104AF000654C0308E34A0308905601202A4B03083B
:104B00006A4B0421DFF8AC911868FFF769FC684A2A
:104B10000346502140461CF02DFBC4F874814FF031
:104B2000050812A90698CDF84890ADF84C8015F00C
:104B300019FF0699304612F0F5FB34232A460798F0
:104B4000009395214FF4D573FFF756F8079938462F
:104B5000C4F8A8A1A4F8AC514FF0040A15F05AFC0F
:104B600004F5DA7397E807000327CDF848904FF073
:104B70000609ADF84C7083E8070012A9079815F0F4
:104B8000F1FE0799304612F0CDFB0998722240F2EF
:104B90007B11FFF7ECFD0E2310AA0FA9ADF84430EE
:104BA0000D230998ADF8483012ABADF83C50009396
:104BB00011ABADF8405016F060F84FF01913099999
:104BC0003046C4F8E8B1C4F8F8314FF0010B12F0E8
:104BD000A9FB0398EC223021FFF7C9FD12AB10AA04
:104BE0000FA90398009311ABADF83C70ADF840A04D
:104BF000ADF84480ADF8489016F079F9039801219A
:104C000016F016FA0399089884F870B2FFF73AFD87
:104C10000399304612F086FB0498EC226821FFF7D6
:104C2000A6FD12AB10AA0FA90498009311ABADF822
:104C30003C70ADF840A0ADF84480ADF8489016F057
:104C400056F92946049816F0F3F90499089884F85F
:104C5000B0B2FFF717FD0499304612F063FB0598D8
:104C6000EC22A321FFF783FD12AB10AA0FA9059830
:104C7000009311ABADF83C70ADF840A0ADF84480A6
:104C8000ADF8489016F033F92946059816F0D0F99A
:104C90000599089884F8F0B2FFF7F4FC30460599BE
:104CA00012F040FB204615B0BDE8F08F9856012069
:104CB000406503086842030870477047704730B486
:104CC00044680346C2689B68551004EB6200D20733
:104CD00048BF625930BC48BFD358184703464068A4
:104CE00030B19A681AB9D86800F001007047012005
:104CF000704710B5044610212BF087FB204610BDED
:104D000010B504464FF406712BF07FFB204610BD12
:104D10009830884208B505D118F03CFDBDE8084040
:104D2000FFF76EB908BD00002DE9F04F04468FB0C3
:104D300000251AF039FD2746824B26222946E563D5
:104D400004F16C0647F8403B38462CF061FD3846CC
:104D5000FFF71AFD7C4B4FF0FF08262223644FF625
:104D6000FF732946304684F866800DF13009A56648
:104D700004F1980BADF830302CF04AFD304604F1C8
:104D8000D40AFFF701FD714B49463046E366BDF892
:104D9000303084F8948004F10408A4F8923016F0BE
:104DA00028F8584615F0FEFF5046FFF72FFD04F592
:104DB0008E7318460393FFF729FD654B2A46384644
:104DC000C4F81C312946634BC4F86451C4E98234E9
:104DD000614BC4E984354FF4887300934FF4F0734A
:104DE000FEF70AFF4FF07F4339464046A36604AF03
:104DF00012F098FA2A4630462946FFF7B8FC0F23EE
:104E000030464946ADF8303015F0F3FF31464046A4
:104E100012F088FA5846D42240F29D11FFF7A7FC01
:104E20004FF0010302260AAAADF824300C2358469D
:104E300009A9ADF82C300B23CDF80090ADF8303037
:104E40000BABADF8286015F018FF4FF0051359466D
:104E50004046DFF828B1C4F8D03004F50273C4F836
:104E6000C03012F05FFA12224FF4AD715046FFF7D6
:104E70007EFC4FF07F4351463846C4F80431A4F815
:104E8000085115F0C7FA04F5887397E8070083E81E
:104E9000070049465046ADF8346004F5B476CDF8C5
:104EA00030B015F05FFD5146404612F03BFA5A23F0
:104EB00065224FF49C71039800939823FEF79CFEA3
:104EC0004FF07F4303993846C4F84C31D4F81C3175
:104ED000A4F85051D3F88430984704F5AC7397E8A0
:104EE000070083E807001D4B1B682BB91C4B602192
:104EF0001C4A1D482CF0D0F91C4B1B881BB91C4BBD
:104F00006121184AF5E71B4B29461868FFF768FA34
:104F1000194A0346502130461CF02CF94FF001038A
:104F200049460398C4F86461ADF83430CDF830B028
:104F300015F018FD4046039912F0F4F920460FB021
:104F4000BDE8F08F684E0308F0730308447503084A
:104F5000204D0308504E0308114D00088C560120C7
:104F6000664A0308654C0308E34A0308905601208B
:104F70002A4B03089856012040650308684203083D
:104F8000704710B504464FF4AE712BF03EFA204640
:104F900010BD10B50446D0F8580100F012F82046B4
:104FA000BDE8104018F078BC10B50446FEF7E4FFE9
:104FB000014B2046236010BD9C4E03080022026076
:104FC00070477047406870474160704770470438C9
:104FD0007047704710B5044610212BF016FA204692
:104FE00010BDA0F10400F5E70022C1608260024A12
:104FF0000260183242607047F04E030870477047F5
:1050000030B444680346C2689B68551004EB6200E4
:10501000D20748BF625930BC48BFD358184703462F
:10502000406830B19A681AB9D86800F0010070473A
:105030000120704710B5044610212BF0E6F92046F8
:1050400010BD0000034B10B504460360FFF736FAAD
:10505000204610BD384F030810B50446FFF7F2FF95
:105060004FF46F7120462BF0D0F9204610BD0000A0
:1050700010B50446FFF704FC064B002220462360CF
:10508000054BC4E9EA34054BC4F8B0330123C4E945
:10509000ED2310BD384F0308204F03086B51000863
:1050A00070B50446012100F50E7604F51E75C0F8B2
:1050B000B81304F52E74304615F0BAFF28460021C7
:1050C00015F0B6FF0021204615F0B2FF304619F06A
:1050D0001AFD284619F017FD2046BDE8704019F06A
:1050E00012BD70B50446052300F50E76002104F5C7
:1050F0001E75C0F8B83304F52E74304615F098FFCD
:105100002846012115F094FF0021204615F090FF5C
:10511000304619F0F8FC284619F0F5FC2046BDE8A9
:10512000704019F0F0BC70B504460A2300F50E7605
:10513000002104F51E75C0F8B83304F52E7430460E
:1051400015F076FF2846002115F072FF0121204658
:1051500015F06EFF304619F0D6FC284619F0D3FC46
:105160002046BDE8704019F0CEBC00F50E729142A9
:1051700001D1FFF795BF00F51E72914201D1FFF7F3
:10518000B0BF00F52E73994201D1FFF7CCBF704735
:10519000C36B10B504469868FFF714FF064A034630
:1051A000502104F53E701BF0E5FF04F59670BDE854
:1051B000104019F0A8BC00BF104F030838B5C36BEE
:1051C00004469868FFF7FEFED4F8B833E56B184440
:1051D000B0F57A7F0DDAA868FFF7F4FED4F8B813BB
:1051E0000144A868FFF7F0FE2046BDE83840FFF70D
:1051F000CFBF40F2E731F4E738B5C36B0446986897
:10520000FFF7E0FED4F8B833E56B98420DDBA868F1
:10521000FFF7D8FED4F8B813411AA868FFF7D4FEF8
:105220002046BDE83840FFF7B3BF0021F5E738B5A9
:105230000446FFF744F9012104F50E75284615F0E0
:10524000F7FE284619F05FFC04F56A732046C4F89F
:105250006032C4F8A032C4F8E032BDE83840FFF74D
:1052600097BF704770470438704710B50446102147
:105270002BF0CBF8204610BDA0F10400F5E70000AC
:105280000022C1608260024A0260183242607047A8
:10529000744F030870470000034B10B504460360C9
:1052A000FFF70AFD204610BD9C4F030810B50446C9
:1052B000FFF7F2FF4FF4067120462BF0A6F82046C8
:1052C00010BD000010B50446FFF72EFD014B20462F
:1052D000236010BD9C4F0308C36B10B5044698684B
:1052E000FFF770FE064A0346502104F5B4701BF028
:1052F00041FF04F58E70BDE8104019F004BC00BFFA
:10530000104F030810B50446FFF7D7FC2046BDE850
:105310001040FFF7E1BF00000F490020D1F88830AE
:1053200043F47003C1F888300C4B1A6842F0010254
:105330001A6098601A6822F0847222F480321A602F
:10534000074A5A601A6822F480221A60D8604FF027
:1053500000638B60704700BF00ED00E00038024042
:10536000103000247047002070470000002337B53C
:105370008DF807300C4B1A780AB901221A700324F1
:10538000C5B2013CA8212846FCF74CFC14F0FF04F0
:105390008DF807009DF80730DBB201D0512BF0D11A
:1053A0009DF8070003B030BDDA23002013B50024B8
:1053B0000221C0B28DF80740FCF734FC8DF80700DD
:1053C0009DF8073003F00F038DF807309DF8073084
:1053D000052B01D98DF807409DF80720034B9DF858
:1053E00007005A7000229A7002B010BDDA23002024
:1053F0002DE9F74F2F4C15464FF000080F46A378C4
:1054000062788DF807809A424DD9092B4ED803EB6C
:1054100043035B00DBB2191D03F1030B03F1060A22
:105420000533C9B25FFA8BFB5FFA8AFA5FFA83F839
:10543000C6B2DFF884903046FCF7F4FB8DF8070025
:105440009DF8073059463046A9F80030FCF7EAFBD2
:105450008DF8070051469DF807303046B9F8002016
:105460001B0203F4706313433B80A9F80030FCF780
:10547000D9FB8DF8070041469DF807303046A9F862
:105480000030FCF7CFFB8DF807009DF80730B9F826
:1054900000201B0203F470631343A9F800302B8033
:1054A000A3780133A37003B0BDE8F08FC246C346B2
:1054B0004146BDE7DA230020D82300200122A421A1
:1054C000C0B2FCF795BB0022A421C0B2FCF790BB90
:1054D000FFF7F9BF70470000024B1A780AB90122A2
:1054E0001A707047DA230020074A032008B51368B2
:1054F00043F48073136000F02DF80020FCF712FADB
:10550000FBF7D8FF002008BD003C0240034A044BD3
:1055100011681B780B441360704700BFE023002024
:1055200038000020014B1868704700BFE0230020BE
:1055300038B50446FFF7F6FF0546631C1EBF044B53
:105540001B78E418FFF7EEFF431BA342FAD338BDE4
:105550003800002007490302CA6803F4E06322F41C
:10556000E0621204120C134343F0BF6343F40033B0
:10557000CB60704700ED00E0164B30B5DC68C4F33B
:105580000224C4F10703251D042B28BF0423062D84
:105590004FF0FF358CBF033C002405FA03F30028CD
:1055A00005FA04F521EA030322EA050203FA04F3EB
:1055B00043EA02034FEA0313DBB206DB00F160406B
:1055C00000F5614080F8003330BD00F00F00024A62
:1055D0001354F9E700ED00E014ED00E0002807DBCC
:1055E0004109012300F01F00024A834042F82130A4
:1055F000704700BF00E100E000280CDB43090122F6
:1056000000F01F0004492033824041F82320BFF3FB
:105610004F8FBFF36F8F704700E100E0BFF35F8FE4
:10562000044B5A6A22F480325A620022C3F8942052
:10563000704700BF00ED00E0064B40F00100C3F8EA
:1056400094005A6A42F480325A62BFF34F8FBFF31C
:105650006F8F704700ED00E04378144AC2F898302D
:10566000D2F8A03023F00103C2F8A0304368C2F89A
:105670009C30C37A017B1B0643EA017301780B431C
:10568000817A43EAC143417B43EA8143817B43EA18
:105690004143C17B43EA0143417A43EA0123017A52
:1056A00043EA4103C2F8A030704700BF00ED00E0BC
:1056B00010B5044608B9012010BD437F03F0FF0276
:1056C00013B90277FBF714FF022363772379E3B959
:1056D0002368134A5A619A6822F018029A60627924
:1056E0002368D2B94FF0FF321A6100209A686169CD
:1056F00022F060020A43A1699A609A6822F080024F
:105700000A439A6001236377D6E7D4E90212204660
:1057100000F008F80028E2D0CDE72269E4E700BFF6
:10572000B71DC104CB0710B50DD51F23013B1DD3F9
:1057300021FA03F4E407F9D5102A13D0102A04D86B
:105740003AB1082A10D001200BE0182AFBD1062B11
:10575000F9D800684161836823F01803134383601C
:10576000002010BD072BF3E70F2BF1E7102AE5D13E
:10577000E9E770B50446866DFFF7D4FE054694F858
:105780003530022B06D0802301206365002384F886
:10579000343070BD23681A6822F016021A605A6904
:1057A00022F080025A61226C0AB9A26C1AB11A68FE
:1057B00022F008021A601A6822F001021A602368B7
:1057C000186810F0010007D1E26D3F239340B360E9
:1057D000012384F83530D9E7FFF7A4FE401B0528E4
:1057E000EDD920230320636584F83500CEE710B59A
:1057F000044630B390F8393003F0FF021BB980F84B
:105800003820FBF78BFE226802236168002084F8B1
:105810003930136823F440330B43A1681360536B92
:1058200023F007030B43E1685363136C23F47F53A6
:1058300023F03F030B4313640123E06384F8393002
:1058400010BD0120FCE770477047036870B55E68C3
:1058500004461D68F20714D5E90512D51A6822F42A
:1058600080721A60C26B42F00102C26301229A6028
:10587000042380F83930002380F83830436903B1BD
:105880009847B20616D5AB0414D523681A6822F4DB
:1058900000521A6020229A60E36B43F00203E36334
:1058A000042384F83930002384F8383063690BB15D
:1058B00020469847300716D5290514D523681A685D
:1058C00022F400621A6008229A60E36B43F004033A
:1058D000E363042384F83930002384F838306369A3
:1058E0000BB12046984772070BD56B0509D5236885
:1058F00020461A6822F480621A6004229A60FFF738
:10590000A2FFB00714D5A90512D523681A6822F49E
:1059100000721A6002229A60E36BE363012384F849
:105920003930002384F8383023690BB1204698477A
:10593000F20613D5EB0411D5236820461A6822F429
:1059400080521A6010229A60E36BE363012384F8AB
:105950003930002384F83830FFF776FF70BD00003F
:10596000F0B590F8382003460220012A2BD00122FE
:1059700083F839000E011C4F83F8382003EB011225
:10598000D2E90740556A44EA0040093C012C96BF21
:1059900005F07F4240EA056010431A68A1B9516AD8
:1059A000012C01EA070141EA000151629969916104
:1059B00003D8596A21F07F4191620122002083F8C7
:1059C000392083F83800F0BDD169012C01EA0701C4
:1059D00041EA0001D16103EB060189691161ECD84C
:1059E00025F07F451562E8E7F0FFFC002DE9F74F51
:1059F0000023DFF8BC916C4A01240D689C4004EA46
:105A00000506AC4340F0B7804D6803274FEA430ECC
:105A100005F0030407FA0EFC671E6FEA0C0C012F59
:105A200034D8876807EA0C08CF6807FA0EF747EA08
:105A300008078760476827EA0608C5F300179F40F4
:105A400047EA08074760C768022C07EA0C088F6816
:105A500007FA0EF747EA0807C76019D14FEAD308DB
:105A600003F0070A4FF00F0B00EB88084FEA8A0A91
:105A7000D8F820700BFA0AFB27EA0B0B0F6907FA1C
:105A80000AF747EA0B07C8F8207001E0032CDAD1C7
:105A9000076804FA0EF415F4403F07EA0C0744EADD
:105AA0000704046067D0D9F8444023F0030703F0EB
:105AB000030C4FF00F0E44F4804407F180474FEA87
:105AC0008C0CC9F8444007F59C37D9F844400EFACD
:105AD0000CFE04F480440194019CBC6824EA0E0E80
